:020000040800F2
:1000000000000220E1720008856700088767000889
:10001000896700088B6700088D67000800000000F2
:100020000000000000000000000000008F670008D2
:1000300091670008000000009367000895670008BA
:100040003173000831730008317300083173000800
:1000500031730008317300083173000831730008F0
:1000600031730008317300083173000831730008E0
:1000700031730008317300083173000831730008D0
:1000800031730008317300083173000831730008C0
:1000900031730008317300083173000831730008B0
:1000A000A16700083173000831730008317300083C
:1000B00031730008B9670008C9670008D9670008EC
:1000C000E9670008317300083173000831730008D4
:1000D00031730008F967000809680008196800080A
:1000E0003173000831730008317300083173000860
:1000F0003173000831730008317300083173000850
:10010000317300083173000831730008317300083F
:100110002968000839680008496800083173000838
:100120003173000831730008596800083173000802
:10013000317300083173000831730008317300080F
:1001400031730008317300083173000831730008FF
:1001500031730008317300086968000831730008C2
:1001600031730008317300083173000831730008DF
:10017000317300083173000831730008000000007B
:0801800031730008317300081F
:1001C00010B5054C237833B9044B13B10448AFF391
:1001D00000800123237010BD000A002000000000F1
:1001E0000048010808B5034B1BB103490348AFF3AE
:1001F000008008BD00000000040A0020004801083B
:1002000038B50446144D2870013000010BF07CFE17
:10021000686000232B722B7ADBB29C4218D92B46E4
:1002200000211A7A00EB021211711A7A00EB021205
:1002300091601A7A00EB0212D1601A7A1201815091
:100240001A7A0132D2B21A721A7AD2B2A242E8D320
:10025000014B00221A7238BD1C0A002030B44FEA4C
:10026000001C0D4C646804EB001054F80C507DB970
:1002700044F80C10037182600023C36054F80C3002
:1002800043B10079C0B2022818BF012030BC7047CA
:100290000220FBE70220F9E71C0A002010B5154BED
:1002A0001A78FAB15B68013AD2B203F1100C0CEB88
:1002B000021C00244FF0010E02E01033634511D000
:1002C0001A68002AF9D0DA680132DA60D8689A68C8
:1002D0009042F2D3DC601A79D2B2022A18BF83F8B6
:1002E00004E0EAE7034BDB681BB1024AD368013B39
:1002F000D36010BD1C0A002008B5124C00263546FC
:100300002572237ADBB222789A42F9D96268237A7D
:1003100002EB03131B79DBB2012B09D0237A0133E3
:10032000DBB22372237ADBB222789A42EED8E7E777
:10033000237A02EB03131E71237A1B01D3589847CB
:10034000ECE700BF1C0A002010B41A4A0023137205
:10035000137ADBB292F800C0634528D25468137A4E
:100360001B01E3584BB1137A0133DBB21372137ADA
:10037000DBB26345F3D3022017E00E4B1A7A120169
:10038000A0501A7A04EB0212002010711A7A04EBC2
:10039000021291601A7A04EB0212D0601B7A1B01E0
:1003A000E35883420CBF0220012010BC704702209A
:1003B000FBE700BF1C0A00200C4A5368127A03EBCB
:1003C0000212926882420ED0084A117A03EB0111A0
:1003D0008860117A03EB01110020C860127A03EBE8
:1003E0000213187170470120704700BF1C0A0020DB
:1003F000044B5B6803EB001081600023C360037152
:10040000704700BF1C0A0020024B5B6803EB00131F
:10041000986870471C0A0020024B5B6803EB0013CE
:10042000D86870471C0A0020034A117A536803EB0E
:1004300001139868704700BF1C0A0020034A117A14
:10044000536803EB0113D868704700BF1C0A0020F3
:10045000034B5B6803EB001001710023C36070471E
:100460001C0A002010B582B004460C4B1B692BB14E
:100470000A4B1B690DF1070100209847074A536892
:1004800003EB041301211971136923B113690DF1F1
:1004900007010020984702B010BD00BF1C0A0020D1
:1004A00010B582B004460C4B1B692BB10A4B1B697B
:1004B0000DF1070100209847074A536803EB041326
:1004C00000211971136923B113690DF1070101208E
:1004D000984702B010BD00BF1C0A0020034BD86033
:1004E0001A46D368002BFCD1704700BF1C0A0020BD
:1004F000034BD8601A46D368002BFCD1704700BF6D
:100500001C0A00200138B0F1FF3FFBD170470138D1
:10051000B0F1FF3FFBD17047034B1B6903B170473C
:10052000014B1861FBE700BF1C0A00200C4B186050
:1005300000221A718C4689B103460139C9B201EB18
:1005400041010C3000EB81011A705A809A809A6048
:100550000C338B42F8D1024B83F804C0704700BFC4
:10056000300A002030B400EB40004FEA800C084C09
:10057000246804EB8000856815B1002030BC70470A
:1005800004F80C3000234380828081600120F5E76D
:10059000300A002000EB40004FEA800C074B1A683D
:1005A00002EB800083889BB28B4205D081800023C0
:1005B0004380012302F80C30704700BF300A00204E
:1005C00000EB4000034B1B6803EB8000808880B287
:1005D000704700BF300A002000EB40004FEA800C5B
:1005E000054B1B6803EB800082681AB103F80C10FE
:1005F0000020704701207047300A002000EB4003C4
:100600004FEA830C064A126802EB8303996829B10A
:10061000002002F80C005880986070470120704755
:10062000300A002000EB40004FEA800C064B1B68AC
:1006300003EB800082682AB103F80C10002343808A
:100640001846704701207047300A00202DE9F84312
:100650001C4B1B79002B32D000241A4EA0464FF0C1
:10066000010904E001343279E3B29A4227D9E5B2B4
:1006700005EB45039F00316801EB83029068002879
:10068000F0D011F82300C0B20128EBD1508801301E
:1006900080B25080B2F804C01FFA8CFC6045E1D3F0
:1006A00001F823809368984733683B449B889BB24A
:1006B000002BD7D049462846FFF7B4FFD2E7BDE864
:1006C000F88300BF300A002000EB4000034B1B689A
:1006D00003EB800089B24180704700BF300A0020E0
:1006E000436819444160094BA3FB0131C1F38711F1
:1006F0000023C360A3F17733A3FB01235B09C3EBA2
:100700000312A1EB8201017243727047D34D621054
:1007100002600A6070472DE9F04182B006460C463F
:1007200015469846BDF824701A4B1B687BB30DF133
:1007300007010020984707B3089A013A4FF0000CD0
:1007400005EB080005E00CF1010C1FFA8CFC674575
:1007500013D9236812F8011F1970236801338342EB
:1007600008BF2B46236031689942ECD1013398428F
:100770000CBF294619463160E5E7064B1B681BB1E3
:100780000DF107010120984702B0BDE8F081002F6C
:10079000D2D1F9E72C0A00202DE9F04782B00546B6
:1007A0000E4690469A460A9CBDF82C701C4B1B685E
:1007B0008BB30DF1070100209847FFB14FF0000CFB
:1007C000E146604608EB0A014FF0010E10E01B788D
:1007D00023702B6801338B4214BF2B60C5F8008057
:1007E000F14601340CF1010C1FFA8CF39F4207D93A
:1007F0002B6832689A42EAD12070F2E74FF0000984
:10080000074B1B681BB10DF10701012098474846B3
:1008100002B0BDE8F087002FD0D14FF00009F6E715
:100820002C0A00200B6801688B4206D88B423DBF22
:100830009818401A80B200207047581A80B270474A
:1008400008B5064B1B684FF4067202FB003040F2FD
:100850000112011DFFF7E6FF08BD00BF380A0020A6
:100860002DE9F04383B00C46551EEDB2DAB14FF4DA
:10087000067600FB06F601350D44DFF830904FF0A8
:10088000010840F20117D9F8000030442346013432
:10089000CDF8048000933B4600F10802011DFFF7EC
:1008A0007BFFAC42EFD103B0BDE8F083380A0020F3
:1008B000044B1B684FF4067202FB00F01B581B78B8
:1008C0000B707047380A0020054B1B684FF4067206
:1008D00002FB00335B6813F8013C0B70704700BFEC
:1008E000380A0020014B5860704700BF380A0020CA
:1008F0002DE9F04383B00746194B1C684FF406738B
:1009000003FB004404F5867504F5887640F2011275
:1009100031462846FFF786FF804628B9002384F831
:10092000153203B0BDE8F083012384F81532184472
:100930000BF0EAFA8146CDF80480009040F20113F2
:1009400004F58A7231462846FFF726FF044B5B68A0
:10095000424649463846984748460BF0DDFAE0E7FC
:10096000380A0020F0B585B0064615464FF40674E7
:1009700000FB04F4174F3B6818190192009140F2F4
:10098000011300F58A7200F5887100F58670FFF793
:10099000C2FE3B681C4494F8153203B90DB905B08A
:1009A000F0BD012584F8155201950DF10F07009750
:1009B00040F2011304F58A7204F5887104F586701B
:1009C000FFF7EAFE034B5B682A46394630469847F4
:1009D000E5E700BF380A00202DE9F04184B0044665
:1009E0000E464FF4067500FB05F51F4B18682844AA
:1009F00090F8153203B972B90192009640F20113D2
:100A000000F58A7200F5887100F58670FFF783FEA5
:100A100004B0BDE8F081012780F8157201920091C1
:100A200040F2011300F58A7200F5887100F58670B6
:100A3000FFF771FEDFF83080D8F8000028440197F6
:100A40000DF10F03009340F2011300F58A7200F5D7
:100A5000887100F58670FFF79FFED8F804303A469B
:100A6000314620469847D3E7380A00202DE9F04365
:100A700083B00546194B1C684FF4067303FB004412
:100A800094F815325BB904F5867604F5887740F260
:100A9000011239463046FFF7C5FE804610B903B053
:100AA000BDE8F083012384F8153218440BF02CFACA
:100AB0008146CDF80480009040F2011304F58A725B
:100AC00039463046FFF768FE044B5B6842464946AC
:100AD0002846984748460BF01FFAE0E7380A0020FE
:100AE000104B1860E1B100F108034A1ED2B200F5C4
:100AF00008704FF4067101FB0200002103F58672B5
:100B0000C3F80421C3F8082143F8083C43F8043C27
:100B100083F80D1283F8011103F506738342EDD1BA
:100B2000704700BF380A002030B5BDF80C50154C96
:100B300020605C084480032B0FD9A2F1020E4FF015
:100B4000000C3EF8023FB3FBF5F3AEF800300CF1B9
:100B5000010C4488631E6345F3DC04F10044013C4E
:100B600032F814304FF6FF7C63451CBFB3FBF5F33E
:100B700022F8143082600180138883804388C38008
:100B800030BD00BF400A0020024B18609A80996077
:100B9000704700BF400A0020F8B5194B9B88002B16
:100BA0002DD00024164D4FF6FF760BE08B681B8886
:100BB0008B80AB6830F8220098470134AA88A3B232
:100BC0009A421CD9A3B203EB4302286800EB8201CE
:100BD0008B88B342F1D0013B9BB28B80002BECD1D0
:100BE0008F6802378F60CB88013B9BB2CB80002B94
:100BF000DCD14B88CB80A7EB43078F60D6E7F8BDED
:100C0000400A002030B5074C00EB800C256805EB4E
:100C10004C0E25F81C108EF80820013020716371ED
:100C200030BD00BF4C0A0020014B9860704700BFE8
:100C30004C0A0020014B19805880704700000020AA
:100C400010B5BDF808E0114C94F80CC0F44538BF5D
:100C500084F80CE09E4517D903EB830C00EB4C0C99
:100C6000AEEB030E0EF1FF3E1FFA8EFE734403EB54
:100C700083030A3000EB4303ACF80610ACF8042001
:100C80000CF10A0C9C45F7D110BD00BF4C0A0020A6
:100C90002DE9F84F00AF594B1A7BD31D03F4FC73B9
:100CA000ADEB030DEA46002A00F0A4800026534C69
:100CB000B346B14611E078B3012388F808302079B3
:100CC00028B1A3681BB10138617980B29847013619
:100CD000227BF3B29A4240F28D80F5B284F8049000
:100CE00084F805902369284698470AF8050005EB23
:100CF0008501226802EB410898F80830032BDED802
:100D00000FF2040C5CF823F0B70C0008290D000862
:100D1000710D0008C10D0008B8F80230002BCED0CC
:100D2000013BA8F80230CAE7D0B132F81130013BDC
:100D30009BB222F81130002BC1D1B8F802303BB978
:100D4000012302222E4949882846FFF75BFFB6E7B8
:100D5000032302222A4949882846FFF753FFAEE7BA
:100D60005B465A46B8F804102846FFF74BFFA6E743
:100D700078B132F81130013B9BB222F81130002BD0
:100D80009DD1052303221E4909882846FFF73AFF13
:100D900095E7B8F802303BB104235A46B8F804107E
:100DA0002846FFF72FFF8AE702235A46B8F80410B7
:100DB0002846FFF727FFB8F80630A8F802307EE78C
:100DC00080B132F81130013B9BB222F81130002B78
:100DD0007FF475AF06230322094909882846FFF7E7
:100DE00011FF6CE707235A46B8F804102846FFF7AE
:100DF00009FF64E7BD46BDE8F88F00BF4C0A00203C
:100E0000000000200D4B99601860197B79B10346F2
:100E100001EB810100EB41004FF0000C83F808C0AA
:100E200099881980D98859800A338342F6D1034BB7
:100E30001B6903B17047014B1A61FBE74C0A0020A4
:100E400010B50446481CC0B200EB40000BF05CF843
:100E500020600023A360E360237410BD10B5044636
:100E600080680BF059F820680BF056F810BD014B64
:100E700018607047600A002000B501EB410CD0F803
:100E800000E00EF80C20026862445370026862446D
:100E90009DF804E082F802E0026812F80C20062AAD
:100EA00008BF43740131C8B25DF804FB037813B185
:100EB000022B0ED07047531EDBB24AB10133CA1861
:100EC000437812F801CD634443708A42F8D17047E9
:100ED0007047531EDBB252B10133CA18437812F87F
:100EE00001CD83EA0C0343708A42F7D17047704703
:100EF0002DE9F04F85B004460D460379062B00F22C
:100F00005782DFE813F00700AC01E8003701650005
:100F1000C20007020E1D40F2014231462846FFF78B
:100F200081FCA8B9002363712268127822712374AE
:100F3000A06818B10AF0F0FF0023A360E068002861
:100F400000F03A820AF0E8FF0023E3600120BFE0EE
:100F5000012301930DF10F03009340F2014305F1CA
:100F6000080231462846FFF717FC2268637903EB35
:100F70004303134458789DF80F10884213D0002380
:100F80006371127822712374A06818B10AF0C4FF4B
:100F90000023A360E068002800F00C820AF0BCFF88
:100FA0000020E06094E09B7853B9226863790133B4
:100FB000DBB2637103EB4303D35C2371002087E052
:100FC00001220DF10F0104F11100FFF76FFFECE7B3
:100FD000007C70B301300AF097FFA060002605F195
:100FE000080905F1040801270197A3683344009319
:100FF00040F201434A4641462846FFF7CDFB013601
:10100000F6B2237CB342EFD8A36800229A556379E5
:10101000226803EB430313449B787BBB226863790C
:101020000133DBB2637103EB4303D35C2371002014
:101030004EE040F2014204312846FFF7F3FB2268FC
:10104000637903EB430313445B78C01AC0B2207486
:101050000028BFD100236371127822712374A06825
:1010600018B10AF059FF0023A360E068002800F0DF
:10107000A5810AF051FF0020E06029E0227CA168F0
:1010800004F11100FFF712FFC8E7027C62B1437957
:10109000016803EB4303C818AC4B1D68E368A16803
:1010A0004078A8470023A374002363712268127854
:1010B00022712374A06818B10AF02EFF0023A360E8
:1010C000E068002800F07C810AF026FF0020E06044
:1010D00005B0BDE8F08F0E1D40F2014231462846B2
:1010E000FFF7A0FBA0B90023637122681278227178
:1010F0002374A06818B10AF00FFF0023A360E06812
:10110000002800F05F810AF007FF0020E060DFE7C1
:10111000012301930DF10F03009340F2014305F108
:10112000080231462846FFF737FB627902EB42039B
:1011300022681A445378190903F00F039DF80F1021
:1011400014BF5B18CB1ADBB22374937853B92268AF
:1011500063790133DBB2637103EB4303D35C237127
:101160000020B5E701220DF10F0104F11100FFF796
:101170009DFEECE70F1D40F2014239462846FFF77D
:1011800051FBA0B900236371226812782271237485
:10119000A06818B10AF0C0FE0023A360E068002830
:1011A00000F012810AF0B8FE0020E06090E705F13F
:1011B000080A012301930DF10F03009340F201434C
:1011C000524639462846FFF7E7FA9DF80F30303B84
:1011D00023742168637903EB43020A445278012A9D
:1011E00034D900264FF001090DF10F0840F2014BF0
:1011F0000AE00136F6B22168637903EB43020A4440
:101200005278013A964221DACDF80490CDF8008068
:101210005B46524639462846FFF7BEFA9DF80F3026
:1012200003EB83035B002033227C13442374637934
:10123000226803EB430313449B78002BD9D04A4622
:10124000414604F11100FFF731FED2E70133DBB272
:10125000637103EB4303CB5C2371002038E701F19A
:10126000040840F2014241462846FFF7DBFA2368B2
:10127000667906EB46061E44727891B2884213D214
:10128000002262711B7823712274A06818B10AF0E1
:1012900043FE0023A360E068002800F097800AF076
:1012A0003BFE0020E06013E7501C0AF02DFEE060DA
:1012B0007278E2B1002705F1080B4FF0010A40F205
:1012C0000149CDF804A0FAB2E368134400934B46F9
:1012D0005A4641462846FFF75FFA667906EB46060E
:1012E00023681E4472780137FBB29A42E9D8B3787A
:1012F00053B9226863790133DBB2637103EB4303B3
:10130000D35C23710020E3E6E16804F11100FFF7EC
:10131000CDFDEEE70E1D40F2014231462846FFF7B3
:1013200081FAA8B9002363712268127822712374AC
:10133000A06818B10AF0F0FD0023A360E06800285F
:1013400048D00AF0E9FD0020E060C1E6600A002014
:10135000012301930DF10F03009340F2014305F1C6
:10136000080231462846FFF717FAA27C9DF80F3095
:101370009A4212D00023637122681278227123747A
:10138000A06818B10AF0C8FD0023A360E068F8B1B6
:101390000AF0C2FD0020E0609AE62268637901331A
:1013A000DBB2637103EB4303D35C237100208FE650
:1013B00000208DE600208BE6012089E6002087E6EC
:1013C000002085E6002083E6002081E600207FE6FD
:1013D00000207DE600207BE62DE9F04F87B0064631
:1013E0000F4603929A4603681B78427C8DF81420BE
:1013F00000228DF815208DF81620012401F108092E
:1014000001F10408A34618E005EB450531682944BD
:101410008B783BBBCDF804B033682B440133009389
:1014200040F201434A4641463846FFF774F93268B4
:1014300004EB4403D35C0134E4B2651EEDB2062B29
:10144000FDD801A252F823F0091400080515000880
:10145000A9140008FB140008711400087115000895
:101460004F1500085A46013105A8FFF71FFDD1E7C7
:10147000336805EB45051D44AB787BB9CDF804A076
:10148000039B009340F201434A4641463846FFF72A
:1014900042F9326804EB4403D35CCCE7524603992B
:1014A00005A8FFF703FDE9E705EB450533681D4493
:1014B0006B781A0903F00F0314BFAAEB030353441C
:1014C000DBB28DF81330AB7883B9CDF804B00DF1F1
:1014D0001303009340F201434A4641463846FFF762
:1014E0001AF9326804EB4403D35CA4E75A460DF1C1
:1014F000130105A8FFF7DAFCE7E7326804EB4403C1
:10150000D35C98E705EB450533682B445A7872B1F4
:101510009B788BB933681D446B780193109B0093C3
:1015200040F201434A4641463846FFF7F4F8326834
:1015300004EB4403D35C7EE7109905A8FFF7B6FCE3
:1015400033682B445B78109A1A441092E2E7CDF886
:1015500004B00DF11503009340F201434A464146A1
:101560003846FFF7D8F8326804EB4403D35C62E7EF
:1015700007B0BDE8F08F00BF81F0004102E000BF7E
:1015800083F0004330B54FEA41044FEA430594EA43
:10159000050F08BF90EA020F1FBF54EA000C55EA7E
:1015A000020C7FEA645C7FEA655C00F0E2804FEA4F
:1015B0005454D4EB5555B8BF6D420CDD2C4480EA31
:1015C000020281EA030382EA000083EA010180EA61
:1015D000020281EA0303362D88BF30BD11F0004FAF
:1015E0004FEA01314FF4801C4CEA113102D04042E5
:1015F00061EB410113F0004F4FEA03334CEA133320
:1016000002D0524263EB430394EA050F00F0A78037
:10161000A4F10104D5F1200E0DDB02FA0EFC22FA32
:1016200005F2801841F1000103FA0EF2801843FA26
:1016300005F359410EE0A5F120050EF1200E012A17
:1016400003FA0EFC28BF4CF0020C43FA05F3C01855
:1016500051EBE37101F0004507D54FF0000EDCF1CE
:10166000000C7EEB00006EEB0101B1F5801F1BD377
:10167000B1F5001F0CD349085FEA30004FEA3C0C7B
:1016800004F101044FEA445212F5800F80F09A8071
:10169000BCF1004F08BF5FEA500C50F1000041EB75
:1016A000045141EA050130BD5FEA4C0C404141EB79
:1016B0000101013C28BFB1F5801FE9D291F0000F74
:1016C00004BF01460020B1FA81F308BF2033A3F123
:1016D0000B03B3F120020CDA0C3208DD02F1140C1A
:1016E000C2F10C0201FA0CF021FA02F10CE002F155
:1016F0001402D8BFC2F1200C01FA02F120FA0CFC4E
:10170000DCBF41EA0C019040E41AA2BF01EB045196
:10171000294330BD6FEA04041F3C1CDA0C340EDC94
:1017200004F11404C4F1200220FA04F001FA02F3D7
:1017300040EA030021FA04F345EA030130BDC4F195
:101740000C04C4F1200220FA02F001FA04F340EA8A
:101750000300294630BD21FA04F0294630BD94F03B
:10176000000F83F4801306BF81F480110134013D22
:101770004EE77FEA645C18BF7FEA655C29D094EA93
:10178000050F08BF90EA020F05D054EA000C04BF11
:101790001946104630BD91EA030F1EBF00210020FC
:1017A00030BD5FEA545C05D14000494128BF41F09B
:1017B000004130BD14F580043CBF01F5801130BDFF
:1017C00001F0004545F0FE4141F470014FF000008A
:1017D00030BD7FEA645C1ABF194610467FEA655C3B
:1017E0001CBF0B46024650EA013406BF52EA0335DD
:1017F00091EA030F41F4002130BD00BF90F0000FCB
:1018000004BF0021704730B54FF4806404F1320406
:101810004FF000054FF0000150E700BF90F0000FBF
:1018200004BF0021704730B54FF4806404F13204E6
:1018300010F0004548BF40424FF000013EE700BFB6
:1018400042004FEAE2014FEA31014FEA02701FBF46
:1018500012F07F4393F07F4F81F06051704732F078
:101860007F4208BF704793F07F4F04BF41F40021CF
:10187000704730B54FF4607401F0004521F000412D
:101880001CE700BF50EA010208BF704730B54FF0B7
:1018900000050AE050EA010208BF704730B511F0B8
:1018A000004502D5404261EB41014FF4806404F1F0
:1018B00032045FEA915C3FF4D8AE4FF003025FEA76
:1018C000DC0C18BF03325FEADC0C18BF033202EBFA
:1018D000DC02C2F1200300FA03FC20FA02F001FA54
:1018E00003FE40EA0E0021FA02F11444BDE600BFF7
:1018F00070B54FF0FF0C4CF4E06C1CEA11541DBFA6
:101900001CEA135594EA0C0F95EA0C0F00F0DEF870
:101910002C4481EA030621EA4C5123EA4C5350EA55
:10192000013518BF52EA033541F4801143F48013A6
:1019300038D0A0FB02CE4FF00005E1FB02E506F037
:101940000042E0FB03E54FF00006E1FB03569CF08C
:10195000000F18BF4EF0010EA4F1FF04B6F5007F92
:1019600064F5407404D25FEA4E0E6D4146EB060604
:1019700042EAC62141EA55514FEAC52040EA5E508D
:101980004FEACE2EB4F1FD0C88BFBCF5E06F1ED837
:10199000BEF1004F08BF5FEA500E50F1000041EB6E
:1019A000045170BD06F0004646EA010140EA02001B
:1019B00081EA0301B4EB5C04C2BFD4EB0C0541EA3D
:1019C000045170BD41F480114FF0000E013C00F352
:1019D000AB8014F1360FDEBF002001F0004170BD76
:1019E000C4F10004203C35DA0C341BDC04F114048F
:1019F000C4F1200500FA05F320FA04F001FA05F21B
:101A000040EA020001F0004221F0004110EBD370E7
:101A100021FA04F642EB06015EEA430E08BF20EA13
:101A2000D37070BDC4F10C04C4F1200500FA04F3B6
:101A300020FA05F001FA04F240EA020001F0004148
:101A400010EBD37041F100015EEA430E08BF20EABB
:101A5000D37070BDC4F1200500FA05F24EEA020E03
:101A600020FA04F301FA05F243EA020321FA04F032
:101A700001F0004121FA04F220EA020000EBD370E9
:101A80005EEA430E08BF20EAD37070BD94F0000FE9
:101A90000FD101F00046400041EB010111F4801F1D
:101AA00008BF013CF7D041EA060195F0000F18BFCE
:101AB000704703F00046520043EB030313F4801F0A
:101AC00008BF013DF7D043EA0603704794EA0C0FC4
:101AD0000CEA135518BF95EA0C0F0CD050EA4106DA
:101AE00018BF52EA4306D1D181EA030101F0004157
:101AF0004FF0000070BD50EA410606BF104619467F
:101B000052EA430619D094EA0C0F02D150EA01368A
:101B100013D195EA0C0F05D152EA03361CBF1046CB
:101B200019460AD181EA030101F0004141F0FE416A
:101B300041F470014FF0000070BD41F0FE4141F4EE
:101B4000780170BD70B54FF0FF0C4CF4E06C1CEAEE
:101B500011541DBF1CEA135594EA0C0F95EA0C0FA3
:101B600000F0A7F8A4EB050481EA030E52EA03355E
:101B70004FEA013100F088804FEA03334FF080557F
:101B800045EA131343EA12634FEA022245EA1115AC
:101B900045EA10654FEA00260EF000419D4208BF5D
:101BA000964244F1FD0404F5407402D25B084FEA0A
:101BB0003202B61A65EB03055B084FEA32024FF4B6
:101BC00080104FF4002CB6EB020E75EB030E22BF13
:101BD000B61A754640EA0C005B084FEA3202B6EBD3
:101BE000020E75EB030E22BFB61A754640EA5C0082
:101BF0005B084FEA3202B6EB020E75EB030E22BF12
:101C0000B61A754640EA9C005B084FEA3202B6EB12
:101C1000020E75EB030E22BFB61A754640EADC00D1
:101C200055EA060E18D04FEA051545EA16754FEA33
:101C300006164FEAC30343EA52734FEAC2025FEA51
:101C40001C1CC0D111F4801F0BD141EA00014FF0E0
:101C500000004FF0004CB6E711F4801F04BF0143B1
:101C60000020B4F1FD0C88BFBCF5E06F3FF6AFAECD
:101C7000B5EB030C04BFB6EB020C5FEA500C50F15D
:101C8000000041EB045170BD0EF0004E4EEA1131E0
:101C900014EB5C04C2BFD4EB0C0541EA045170BDE7
:101CA00041F480114FF0000E013C90E645EA060E2B
:101CB0008DE60CEA135594EA0C0F08BF95EA0C0F59
:101CC0003FF43BAF94EA0C0F0AD150EA01347FF4A1
:101CD00034AF95EA0C0F7FF425AF104619462CE778
:101CE00095EA0C0F06D152EA03353FF4FDAE1046DB
:101CF000194622E750EA410618BF52EA43067FF42C
:101D0000C5AE50EA41047FF40DAF52EA43057FF4BB
:101D1000EBAE12E74FF0FF3C06E000BF4FF0010CC6
:101D200002E000BF4FF0010C4DF804CD4FEA410C2A
:101D30007FEA6C5C4FEA430C18BF7FEA6C5C1BD0F7
:101D400001B050EA410C0CBF52EA430C91EA030F78
:101D500002BF90EA020F0020704710F1000F91EAD5
:101D6000030F58BF994208BF90422CBFD8176FEAA3
:101D7000E37040F0010070474FEA410C7FEA6C5C71
:101D800002D150EA013C07D14FEA430C7FEA6C5C78
:101D9000D6D152EA033CD3D05DF8040B704700BFA4
:101DA0008446104662468C461946634600E000BFF2
:101DB00001B5FFF7B7FF002848BF10F1000F01BDC4
:101DC0004DF808EDFFF7F4FF0CBF012000205DF88F
:101DD00008FB00BF4DF808EDFFF7EAFF34BF012014
:101DE00000205DF808FB00BF4DF808EDFFF7E0FFAD
:101DF00094BF012000205DF808FB00BF4DF808EDFE
:101E0000FFF7CEFF94BF012000205DF808FB00BF64
:101E10004DF808EDFFF7C4FF34BF012000205DF846
:101E200008FB00BF4FEA410212F5001215D211D58E
:101E30006FF47873B3EB625212D94FEAC12343F0C7
:101E4000004343EA505311F0004F23FA02F018BF49
:101E5000404270474FF00000704750EA013005D112
:101E600011F0004008BF6FF0004070474FF00000D5
:101E7000704700BF4FEA4102B2F1E04324BFB3F51F
:101E8000001CDCF1FE5C0DD901F0004C4FEAC002F1
:101E90004CEA5070B2F1004F40EB830008BF20F0D5
:101EA0000100704711F0804F21D113F13872BCBF8F
:101EB00001F00040704741F480114FEA5252C2F1E4
:101EC0001802C2F1200C10FA0CF320FA02F018BF2D
:101ED00040F001004FEAC1234FEAD32303FA0CFC80
:101EE00040EA0C0023FA02F34FEA4303CCE77FEA0F
:101EF000625307D150EA01331EBF4FF0FE4040F459
:101F00004000704701F0004040F0FE4040F4000007
:101F1000704700BF80F0004002E000BF81F0004148
:101F200042001FBF5FEA410392EA030F7FEA226C7F
:101F30007FEA236C6AD04FEA1262D2EB1363C1BF0F
:101F4000D218414048404140B8BF5B42192B88BF7E
:101F5000704710F0004F40F4000020F07F4018BFA1
:101F6000404211F0004F41F4000121F07F4118BFC1
:101F7000494292EA030F3FD0A2F1010241FA03FC69
:101F800010EB0C00C3F1200301FA03F100F0004351
:101F900002D5494260EB4000B0F5000F13D3B0F119
:101FA000807F06D340084FEA310102F10102FE2A88
:101FB00051D2B1F1004F40EBC25008BF20F00100F8
:101FC00040EA03007047490040EB0000013A28BF97
:101FD000B0F5000FEDD2B0FA80FCACF1080CB2EB1A
:101FE0000C0200FA0CF0AABF00EBC2505242184398
:101FF000BCBFD0401843704792F0000F81F400013D
:1020000006BF80F400000132013BB5E74FEA41030F
:102010007FEA226C18BF7FEA236C21D092EA030F7B
:1020200004D092F0000F08BF0846704790EA010FF5
:102030001CBF0020704712F07F4F04D1400028BF22
:1020400040F00040704712F100723CBF00F5000004
:10205000704700F0004343F0FE4040F4000070473A
:102060007FEA226216BF08467FEA236301464202E6
:1020700006BF5FEA412390EA010F40F480007047F9
:102080004FF0000304E000BF10F0004348BF40429F
:102090005FEA000C08BF704743F0964301464FF0DB
:1020A00000001CE050EA010208BF70474FF0000337
:1020B0000AE000BF50EA010208BF704711F0004378
:1020C00002D5404261EB41015FEA010C02BF844648
:1020D0000146002043F0B64308BFA3F18053A3F5A7
:1020E0000003BCFA8CF2083AA3EBC25310DB01FAEE
:1020F00002FC634400FA02FCC2F12002BCF1004F72
:1021000020FA02F243EB020008BF20F00100704702
:1021100002F1200201FA02FCC2F1200250EA4C0056
:1021200021FA02F243EB020008BF20EADC7070479C
:102130004FF0FF0C1CEAD0521EBF1CEAD15392EAAA
:102140000C0F93EA0C0F6FD01A4480EA010C400286
:1021500018BF5FEA41211ED04FF0006343EA5010E0
:1021600043EA5111A0FB01310CF00040B1F5000F22
:102170003EBF490041EAD3715B0040EA010062F1D1
:102180007F02FD2A1DD8B3F1004F40EBC25008BFBB
:1021900020F00100704790F0000F0CF0004C08BFD9
:1021A00049024CEA502040EA51207F3AC2BFD2F1A6
:1021B000FF0340EAC250704740F400004FF00003B4
:1021C000013A5DDC12F1190FDCBF00F000407047EE
:1021D000C2F10002410021FA02F1C2F1200200FA2C
:1021E00002FC5FEA310040F1000053EA4C0308BFF3
:1021F00020EADC70704792F0000F00F0004C02BF44
:10220000400010F4000F013AF9D040EA0C0093F0BE
:10221000000F01F0004C02BF490011F4000F013B18
:10222000F9D041EA0C018FE70CEAD15392EA0C0F86
:1022300018BF93EA0C0F0AD030F0004C18BF31F0F1
:10224000004CD8D180EA010000F00040704790F0C7
:10225000000F17BF90F0004F084691F0000F91F06B
:10226000004F14D092EA0C0F01D142020FD193EA31
:102270000C0F03D14B0218BF084608D180EA0100B9
:1022800000F0004040F0FE4040F40000704740F095
:10229000FE4040F4400070474FF0FF0C1CEAD05263
:1022A0001EBF1CEAD15392EA0C0F93EA0C0F69D0BF
:1022B000A2EB030280EA010C49024FEA402037D02A
:1022C0004FF0805343EA111143EA10130CF0004021
:1022D0008B4238BF5B0042F17D024FF4000C8B4211
:1022E00024BF5B1A40EA0C00B3EB510F24BFA3EBF1
:1022F000510340EA5C00B3EB910F24BFA3EB9103C1
:1023000040EA9C00B3EBD10F24BFA3EBD10340EA1A
:10231000DC001B0118BF5FEA1C1CE0D1FD2A3FF660
:1023200050AF8B4240EBC25008BF20F00100704715
:102330000CF0004C4CEA50207F32C2BFD2F1FF03B8
:1023400040EAC250704740F400004FF00003013AE9
:1023500037E792F0000F00F0004C02BF400010F48D
:10236000000F013AF9D040EA0C0093F0000F01F0A1
:10237000004C02BF490011F4000F013BF9D041EAC3
:102380000C0195E70CEAD15392EA0C0F08D14202F6
:102390007FF47DAF93EA0C0F7FF470AF084676E7C9
:1023A00093EA0C0F04D14B023FF44CAF08466EE7A2
:1023B00030F0004C18BF31F0004CCAD130F0004270
:1023C0007FF45CAF31F000437FF43CAF5FE700BFC8
:1023D0004FF0FF3C06E000BF4FF0010C02E000BFF1
:1023E0004FF0010C4DF804CD4FEA40024FEA410393
:1023F0007FEA226C18BF7FEA236C11D001B052EA49
:10240000530C18BF90EA010F58BFB2EB030088BF0E
:10241000C81738BF6FEAE17018BF40F0010070477D
:102420007FEA226C02D15FEA402C05D17FEA236C5F
:10243000E4D15FEA412CE1D05DF8040B704700BFA6
:10244000844608466146FFE70FB5FFF7C9FF00283D
:1024500048BF10F1000F0FBD4DF808EDFFF7F4FF76
:102460000CBF012000205DF808FB00BF4DF808ED0F
:10247000FFF7EAFF34BF012000205DF808FB00BF32
:102480004DF808EDFFF7E0FF94BF012000205DF854
:1024900008FB00BF4DF808EDFFF7D2FF94BF012005
:1024A00000205DF808FB00BF4DF808EDFFF7C8FFFE
:1024B00034BF012000205DF808FB00BF4FEA400256
:1024C000B2F1FE4F0FD34FF09E03B3EB12620DD962
:1024D0004FEA002343F0004310F0004F23FA02F0CC
:1024E00018BF404270474FF00000704712F1610F73
:1024F00001D1420205D110F0004008BF6FF000404A
:1025000070474FF00000704742000ED2B2F1FE4F0C
:102510000BD34FF09E03B3EB126209D44FEA0023B2
:1025200043F0004323FA02F070474FF00000704779
:1025300012F1610F01D1420202D14FF0FF3070471A
:102540004FF00000704700BF7BB972B90029BEBFD1
:1025500000204FF0004106E008BF00281CBF6FF0CC
:1025600000414FF0FF3000F0BFB9ADF1080C6DE94C
:1025700004CE002909DB002B1ADB00F04DF8DDF852
:1025800004E0DDE9022304B07047404261EB410101
:10259000002B1BDB00F040F8DDF804E0DDE902234E
:1025A00004B0404261EB4101524263EB4303704788
:1025B000524263EB430300F02FF8DDF804E0DDE95D
:1025C000022304B0404261EB41017047524263EB89
:1025D000430300F021F8DDF804E0DDE9022304B054
:1025E000524263EB4303704753B94AB9002908BF0D
:1025F00000281CBF4FF0FF314FF0FF3000F074B9DE
:10260000ADF1080C6DE904CE00F006F8DDF804E049
:10261000DDE9022304B070472DE9F047089E0D461E
:1026200004468846002B4DD18A42944668D9B2FAB6
:1026300082F252B101FA02F3C2F1200120FA01F153
:102640000CFA02FC41EA030894404FEA1C45210CB5
:10265000B8FBF5FE1FFA8CF705FB1E8341EA034326
:102660000EFB07F199420BD91CEB03030EF1FF306F
:1026700080F01E81994240F21B81AEF1020E63444C
:102680005B1AA4B2B3FBF5F005FB103344EA034434
:1026900000FB07F7A7420AD91CEB040400F1FF3343
:1026A00080F00881A74240F2058164440238E41BAF
:1026B00040EA0E4000211EB1D4400023C6E9004389
:1026C000BDE8F0878B4208D9002E00F0EE80002193
:1026D000C6E900050846BDE8F087B3FA83F1002992
:1026E0004AD1AB4202D3824200F2F980841A65EBF0
:1026F000030301209846002EE2D0C6E90048DFE738
:1027000002B9FFDEB2FA82F2002A40F09180A1EB1A
:102710000C054FEA1C471FFA8CFE0121B5FBF7F3AD
:1027200007FB1350250C45EA00450EFB03F0A842B9
:1027300008D91CEB050503F1FF3802D2A84200F2CC
:10274000CB8043462D1AA4B2B5FBF7F007FB10551A
:1027500044EA05440EFB00FEA64508D91CEB040420
:1027600000F1FF3502D2A64500F2BB802846A4EB5B
:102770000E0440EA03409EE7C1F120078B4022FA95
:1027800007FC4CEA030C20FA07F405FA01F31C439A
:10279000FD404FEA1C4900FA01F3B5FBF9F8200CA3
:1027A0001FFA8CFE09FB185540EA054508FB0EF0A0
:1027B000A84202FA01F20BD91CEB050508F1FF3A19
:1027C00080F08880A84240F28580A8F10208654424
:1027D0002D1AA4B2B5FBF9F009FB105544EA0545E2
:1027E00000FB0EFEAE4508D91CEB050500F1FF34D9
:1027F0006CD2AE456AD90238654440EA0840A0FB75
:102800000294A5EB0E05A542C846A64656D353D062
:102810005EB1B3EB080265EB0E0505FA07F722FA85
:1028200001F3CD401F43C6E900750021BDE8F087E4
:10283000C2F1200320FA03F10CFA02FC25FA03F39B
:1028400095400D434FEA1C471FFA8CFEB3FBF7F18E
:1028500007FB11302B0C43EA004301FB0EF09842BA
:1028600004FA02F408D91CEB030301F1FF382FD25C
:1028700098422DD9023963441B1AADB2B3FBF7F06D
:1028800007FB103345EA034500FB0EF3AB4208D9C2
:102890001CEB050500F1FF3816D2AB4214D9023803
:1028A0006544ED1A40EA014138E73146304607E712
:1028B0008646E5E61846FAE64B45A9D2B9EB02088A
:1028C00064EB0C0E0138A3E74046EAE7204694E7A4
:1028D0004146D1E7D0467BE7023B654432E70846F4
:1028E00009E76444023842E7704700BF0000000077
:1028F00000000000000000000000000000000000D8
:1029000090F800F06DE9024520F007016FF0000C2F
:1029100010F0070491F820F040F049804FF00004D7
:102920006FF00700D1E9002391F840F000F10800B2
:1029300082FA4CF2A4FA8CF283FA4CF3A2FA8CF3EA
:102940004BBBD1E9022382FA4CF200F10800A4FA51
:102950008CF283FA4CF3A2FA8CF3E3B9D1E90423A5
:1029600082FA4CF200F10800A4FA8CF283FA4CF3DC
:10297000A2FA8CF37BB9D1E9062301F1200182FA96
:102980004CF200F10800A4FA8CF283FA4CF3A2FA9C
:102990008CF3002BC6D0002A04BF04301A4612BAAA
:1029A000B2FA82F2FDE8024500EBD2007047D1E9AD
:1029B000002304F00305C4F100004FEAC50514F03C
:1029C000040F91F840F00CFA05F562EA05021CBF0D
:1029D00063EA050362464FF00004A9E70000000027
:1029E00001F0FF01102A2BDB10F0070F08D010F8C0
:1029F000013B013A8B422DD010F0070F42B3F6D1C4
:102A0000F0B441EA012141EA014122F007047FF0DC
:102A100000070023F0E80256083C85EA010586EA33
:102A2000010685FA47F5A3FA87F586FA47F6A5FA6F
:102A300087F68EB9EED1F0BC01F0FF0102F007027B
:102A400032B110F8013B013A83EA010313B1F8D126
:102A50000020704701387047002D06BF3546033807
:102A6000073815F0010F07D1013015F4807F02BF40
:102A7000013015F4C03F0130F0BC0138704700BF91
:102A8000844641EA000313F003036DD1403A41D379
:102A900051F8043B40F8043B51F8043B40F8043B38
:102AA00051F8043B40F8043B51F8043B40F8043B28
:102AB00051F8043B40F8043B51F8043B40F8043B18
:102AC00051F8043B40F8043B51F8043B40F8043B08
:102AD00051F8043B40F8043B51F8043B40F8043BF8
:102AE00051F8043B40F8043B51F8043B40F8043BE8
:102AF00051F8043B40F8043B51F8043B40F8043BD8
:102B000051F8043B40F8043B51F8043B40F8043BC7
:102B1000403ABDD2303211D351F8043B40F8043B67
:102B200051F8043B40F8043B51F8043B40F8043BA7
:102B300051F8043B40F8043B103AEDD20C3205D377
:102B400051F8043B40F8043B043AF9D2043208D06F
:102B5000D2071CBF11F8013B00F8013B01D30B88E1
:102B600003806046704700BF082A13D38B078DD0BF
:102B700010F003038AD0C3F10403D21ADB071CBF91
:102B800011F8013B00F8013B80D331F8023B20F8FB
:102B9000023B7BE7043AD9D3013A11F8013B00F834
:102BA000013BF9D20B7803704B7843708B788370BC
:102BB000604670474FEA410C7FEA6C5C02D150EAF4
:102BC000013C0AD14FEA430C7FEA6C5C02D152EA25
:102BD000033C02D14FF0000070474FF001007047F6
:102BE0004FF0000CC0F800C0C0F804C0C0F808C026
:102BF000C0F80CC0C0F81CC001614261836170471D
:102C0000F8B5044615460068FFF788F9A06020462D
:102C1000A847A568E1692846FFF782F90646E06102
:102C200021692846FFF784FA074661693046FFF7B5
:102C30007FFA01463846FFF773F90646A769E1684F
:102C40002846FFF76BF901463846FFF771FA01464F
:102C50003046FFF765F96060E560F8BD38B50446B9
:102C6000856807492846FFF715FC38B1054928460D
:102C7000FFF706FC10B10023A360E36138BD00BF7D
:102C8000000070C100007041D0B504468068FEF7B6
:102C9000D7FD06460F460CA3D3E90023FFF79AF8A9
:102CA00048B10BA3D3E9002330463946FFF7B0F80B
:102CB00008B10023A360A168E069FFF731F9E06182
:102CC000D0BD00BFAFF30080333333333333D33F52
:102CD000333333333333D3BF70470000F8B5054681
:102CE0000F461646022406E032463946154808F0DB
:102CF00012FD044624B3032D1FD801A353F825F079
:102D00002D2D0008E92C00081F2D0008112D0008AA
:102D1000324639460C4808F0FEFC0446EAE73246E3
:102D200039460A4808F0F7FC0446E3E732463946DC
:102D3000074808F017FD0446DCE703F07DFCD9E7FF
:102D4000F8BD00BFA81B0020201B0020641B002032
:102D5000DC1A002010B540F2011204212248FDF7D0
:102D6000BFFE2248FDF7BEFD214C20680023022251
:102D70001946406809F09EFC20680023022219468B
:102D8000806809F097FC4FF480721A491A4808F0DD
:102D9000CCFFE8B94FF480721849194808F0C5FF14
:102DA000C8B94FF480721749174808F0BEFFA8B998
:102DB0004FF480721549164809F044F888B915484F
:102DC00009F05EFC0F2214490120FDF7CBFD10BD78
:102DD00003F032FCDEE703F02FFCE2E703F02CFC0B
:102DE000E6E703F029FCEAE7680E0020DD2C000886
:102DF00054000020660C0020641B0020670D00209A
:102E0000201B0020650B0020A81B0020640A002066
:102E1000DC1A0020184801082848010810B582B0C3
:102E2000374B98420AD0374B98421DD0364B9842C8
:102E30003BD0364B98424AD002B010BD3448019185
:102E4000344C009440F2011300F10802011DFDF71B
:102E500062FC4FF480722146294808F0F3FF0028F5
:102E6000EAD003F0E9FBE7E72A4B93F802327E2B26
:102E70000AD04FF480722849224808F056FF0028F3
:102E8000DAD003F0D9FBD7E7224B93F80632FE2BBA
:102E9000EFD10329EDD91F4901F20523022201F2E6
:102EA0000321104604F070FCE3E71C4C2346CAB231
:102EB0002146012004F068FC4FF48072214612483C
:102EC00008F033FF0028B7D003F0B6FBB4E7104892
:102ED0000191134C009440F2011300F5CA6200F214
:102EE0004C6100F5C960FDF716FC4FF48072214675
:102EF000064808F01AFF00289ED003F09DFB9BE7D0
:102F0000DC1A0020641B0020A81B0020201B0020CE
:102F1000680E0020640A0020660C0020650B00206B
:102F2000670D0020002380F83C30704708B50E4B39
:102F3000984209D00D4B98420AD00D4B98420BD0C5
:102F40000C4B98420CD008BD0020FDF7D1FCFAE7ED
:102F50000220FDF7CDFCF6E70120FDF7C9FCF2E702
:102F60000320FDF7C5FCEEE7DC1A0020641B0020FF
:102F7000A81B0020201B002010B51446D2B2002050
:102F8000FDF72AFD204610BD08B501280ED0022805
:102F900014D018B103F050FB002006E001210B48CB
:102FA00005F004FA003818BF012008BD10210848B8
:102FB00005F0FCF9B0FA80F04009F6E70821044872
:102FC00005F0F4F9B0FA80F04009EEE700000240A5
:102FD0000010024030B583B004460A4D032300932D
:102FE0000023022206212846FDF72AFE064A214632
:102FF0002846FDF707FF32210846FDF71BFE03B008
:1030000030BD00BFC8160020892F00082DE9F0410F
:103010000746884616461D4610491846FEF780FFAB
:1030200001460E48FFF738F9044641462846FFF7A7
:103030007FF83946FEF774FF2146FFF779F8054619
:1030400021464FF07E50FEF769FF3146FFF770F8DA
:1030500001462846FEF764FFBDE8F081C3F5A83EAF
:103060002DE9F04104461E46BDF81880037823B1CF
:10307000032B4AD00020BDE8F0810F4615460122FF
:103080004146304605F099F9322000F069FC0022F3
:103090004146304605F091F98DB93A68136A23F03C
:1030A0000A0313620DBB3B681A6A1A622946384646
:1030B00008F012F82378013323700020DBE7042D99
:1030C00007D0082D0BD03A68136A23F4204313620B
:1030D000E8E73A68136A23F0A0031362E2E73A686C
:1030E000136A23F420631362DCE7042D05D0082D56
:1030F00007D03B681A6A1A62D8E73B681A6A1A62F4
:10310000D4E73B681A6A1A62D0E78068636898421D
:1031100028D9C01AFEF772FB1FA3D3E90023FEF7DC
:1031200011FD00221E4BFEF7E3FB00221D4BFEF7B4
:10313000DFFB00221C4BFEF7DBFBFEF79BFE1B4B6D
:103140001B4A1C49FFF762FFE0601B49FFF7ACF91F
:1031500008B11A4BE3600A2000F002FC0023237040
:10316000012088E7C01A00F57F40FF30FEF746FBDC
:1031700009A3D3E90023FEF7E5FC0022084BFEF784
:10318000B7FB0022074BFEF7B3FB0022064BFEF70E
:10319000AFFBFEF76FFED2E70000000080842E41F7
:1031A000004075400000E03F000059400AD7233C32
:1031B0009A99D93FC3F5A83E0000AF4300C07944B7
:1031C00010B520B1012820D003F036FA10BD1F4BF6
:1031D0001B6859631E4B1B7D5BB11E4C01221021E5
:1031E000204605F0EAF800222021204605F0E5F807
:1031F000ECE7184C00221021204605F0DEF80122F1
:103200002021204605F0D9F8E0E7104B1B689963B0
:103210000F4B93F82C3063B10F4C012280212046D4
:1032200005F0CBF800224FF48071204605F0C5F878
:10323000CCE7094C00228021204605F0BEF801228F
:103240004FF48071204605F0B8F8BFE76C180020F5
:10325000441C0020000802400010024008B520B1C4
:10326000012807D003F0E8F903E00021044807F043
:103270006BFE08BD0421024807F066FEF9E700BFB7
:103280006C18002010B520B1012812D003F0D4F939
:103290000EE000210F4807F0D9FE0F4C002210214C
:1032A000204605F08AF800222021204605F085F806
:1032B00010BD0421074807F0C9FE084C00228021F8
:1032C000204605F07AF800224FF48071204605F080
:1032D00074F8EDE76C18002000080240001002406E
:1032E0002DE9F8430446454A4549464800F0BAFBF3
:1032F00002220021204600F091FB434C204600F0C2
:10330000BFFB201D00F0BCFB404803686FF00102CA
:103310001A6107F0D7F9002864D13C213B4807F037
:10332000FDFF002861D13A4803686FF001021A617D
:1033300007F0C8F900285BD13C21354807F0EEFFC3
:10334000002858D101224FF48041324805F035F869
:103350000026314BDE77DFF8C480314D4FF08047D7
:10336000304C43462A4639462046FFF739FC43464F
:103370002A46394604F12000FFF732FC0024DFF82A
:10338000A890DFF8A8802A4F23464A46414638468F
:10339000FFF726FC23464A46414607F12000FFF787
:1033A0001FFC244B224629462348FFF719FC2346DD
:1033B000224622492248FFF713FC23462246214990
:1033C0002148FFF70DFC214C3146204607F0BCFD9B
:1033D0000421204607F0B8FD236832225A639A631D
:1033E000BDE8F88303F028F997E703F025F99AE799
:1033F00003F022F9A0E703F01FF9A3E7C1310008A9
:10340000853200085D320008F016002044190020C3
:10341000FC18002000100240741C002000004040F6
:10342000CDCCCC3E9C17002017B75139C1CA213EE4
:103430005C1700206666C640FC1600209A99193F6A
:103440001C1700209A99993E3C170020B4180020C0
:103450002DE9F84305460C46294E4FEA410901EB98
:103460004103DF0006EBC308F059D8F80430C01A56
:10347000FEF70AFE2349FEF70FFFFEF7E1F91CA352
:10348000D3E90023FEF75EFB1BA3D3E90023FEF77D
:1034900059FB09EB040305EBC305FEF7C3FCE86029
:1034A000F359C8F80430E868FEF7EEFD0146164A05
:1034B000164800EB4410FFF7A3FB05460021FEF77A
:1034C000F3FF58B1002388F8143011492846FEF75D
:1034D000EBFF00B10E4D2846BDE8F88305F100452D
:1034E00004EB4404064901EBC40401232375ECE713
:1034F000CDCCCCCCCC4C3540A5E2ECC367D8253F35
:10350000441C002000003042892C00089C17002039
:103510000000C84310B50C4601EB4103DB00C05866
:10352000FEF7B2FD01460A4A0A4800EB4410FFF7D5
:1035300067FB04460849FEF7B7FF30B90749204644
:10354000FEF794FF10B1054C00E0034C204610BD7F
:103550005D2C00085C1700200000F0420000F0C263
:10356000F0B583B09E4B1B685A6A9E48B0F9003094
:10357000C3EB034313449C490B609C4B1B685A6A82
:10358000B0F90430C3EB034313448B61984A1378BA
:10359000591C117013F0010F40F09880924C206874
:1035A000FEF73CF90022934BFEF7A2F90022924B62
:1035B000FEF7C8FA88A3D3E90023FEF7C3FAFEF7A3
:1035C00031FCA060A069FEF729F90022894BFEF7C3
:1035D0008FF90022884BFEF7B5FA7FA3D3E90023C9
:1035E000FEF7B0FAFEF71EFC2062844B1B7F012B16
:1035F00000F0C680022B0FD0002B00F090807A4D97
:103600002869FEF741FD7E4C2060A86AFEF73CFD6C
:10361000206203F011F859E0784B59699868FEF779
:103620007DFC04467749FEF73FFF00286BD07649C2
:103630002046FEF773FC0446744A21467448FFF79F
:10364000DFFA0546734C2168FEF76AFC06462060E7
:1036500029466068FEF762FC05466060624C20699E
:103660002C2707FB00F0FEF7D9F85BA3D3E9002372
:10367000FEF73EF900225F4BFEF764FAFEF7FAFB15
:1036800001463046FEF74CFC634E3060A06A07FBF3
:1036900000F0FEF7C3F850A3D3E90023FEF728F9A2
:1036A0000022544BFEF74EFAFEF7E4FB0146284693
:1036B000FEF736FC306200212046FFF72BFF504D0D
:1036C000286001212046FFF725FF2862464C002193
:1036D0002046FFF7BDFEFEF717FF85B2ADF8045098
:1036E00001212046FFF7B4FEFEF70EFF84B2ADF8CD
:1036F00006402946002000F063F92146012000F031
:103700005FF903B0F0BD45492046FEF7AFFE002843
:1037100092D03D492046FEF703FC04468CE7324C2C
:1037200020692C2606FB00F0FEF778F82AA3D3E9DF
:103730000023FEF7DDF800222E4BFEF703FAFEF71A
:1037400099FB354D2860A06A06FB00F0FEF766F88D
:1037500021A3D3E90023FEF7CBF80022254BFEF787
:10376000F1F9FEF787FB286200212046FFF7D2FE21
:10377000234D286001212046FFF7CCFE2862A5E7F3
:103780001E4E224D96F90100FEF77EFC01462A46A8
:103790002348FFF735FA044696F90100FEF774FC5A
:1037A00001462A461F48FFF72BFA01462046FEF73E
:1037B000B7FB04460C4E3069FEF766FC2146FEF767
:1037C000ADFB0F4D2860B06AFEF75EFC2146FEF7A8
:1037D000A7FB28627AE700BFCDCCCCCCCC4C3540DF
:1037E00044190020F0160020441C0020FC18002082
:1037F000F816002000406A4000004640741C00207B
:103800009C170020000034430000B443D92C00086A
:10381000FC160020E81600205C170020000034C3CE
:103820001C1700203C17002031B1074A32F9203024
:10383000013B22F820307047034A32F9203001332F
:1038400022F82030704700BFF01600200D4B1B7F80
:10385000012B0BD0022B0DD003B170470A4B1A6914
:10386000104418619A6A114499627047064B1861B6
:1038700099627047044B1A69104418619A6A11449E
:103880009962EAE7741C0020441C00200E4B1B7F49
:10389000012B09D0022B0CD003B170470B4B9A6857
:1038A0001A611A6A9A627047084B00221A619A627A
:1038B0007047074B00221A605A60044B9A681A61DD
:1038C0001A6A9A62E9E700BF741C0020441C0020B9
:1038D000E816002008B5074B1B7F834201D100206A
:1038E00008BD044B187700229A77FFF7CFFF01201D
:1038F000F6E700BF741C00200A4B1B680A4AA2FBB3
:1039000003239B09013BB3F1807F0AD24FF0E022F1
:103910005361064BF02183F82310002393610723A2
:103920001361704748000020D34D621000ED00E0A5
:10393000EFF31080B0FA80F04009704710B50C46E4
:1039400010B1012805D010BDFFF7F2FF207072B64C
:10395000F9E70B780BB162B6F5E772B6F3E7000052
:1039600010B44FF0E022936954690E4A12680E4970
:10397000A1FB022C4FEA9C4C00FB0CFC002104E054
:10398000E01A02441144614509D21A464FF0E0237F
:103990009B699A42FAD0F3D9D21A1144F3E710BCCA
:1039A000704700BF4800002083DE1B4308B5FFF7C7
:1039B000A3FF0248FCF7B0FD08BD00BF3D39000879
:1039C00038B5044600EB4002104B1B6803EBC20302
:1039D0001B7DDBB2022B0BD00D46032B0CD00C4B06
:1039E0001B6898470B4B1B6829462046984702E006
:1039F000074B1B68984738BD064B1B68002198474A
:103A0000054B1B6820469847F5E700BFDC170020F0
:103A1000E4170020E0170020E8170020F8B50F4653
:103A200016460E4B1860002415E00D4B1B6820460F
:103A3000984704EB4403DA0008490D6805EBC3031B
:103A400003211975012159751F610020D860986004
:103A5000A8500C44E4B2B442E7D3F8BDDC17002010
:103A6000E8170020034B1A60034B1860034B1960E2
:103A7000704700BFE0170020E4170020E81700207F
:103A8000002303800123837070470000F0B583B0EA
:103A9000074601AA04210D2002F036FB00284BD175
:103AA00004469DF80420D21002F01C029DF8071075
:103AB000C1F301131A438DF800209DF80520D210A0
:103AC00002F01C02C1F381031A438DF801209DF816
:103AD0000630DB1003F01C0301F003010B438DF8EB
:103AE000023018E007EB8405144B47F8243004E05B
:103AF00013492868FEF71CFB286006F108030DEB4C
:103B0000030212F8083C013BDBB202F8083C002B30
:103B1000EED10134E4B2022C0BD8264604F108039E
:103B20006B4413F8083C002BDCD1002347F8243009
:103B3000EFE7002003B0F0BD0720FBE77B14AE3EAB
:103B40001D5A843F2DE9F04182B00746884601AAFC
:103B500003210D2002F0D8FA00285FD19DF804302F
:103B600003F01F038DF804309DF8053003F01F03A8
:103B70008DF805309DF8063003F01F038DF80630F0
:103B80000026344626E02849FEF7D2FA04F108035D
:103B90000DEB030212F8043C013BDBB202F8043CDB
:103BA000002BF0D101462846FEF776FB4FF07E5100
:103BB000FEF7B4F920F000401C49FEF775FC40B157
:103BC0000123A3401E4304E01948DFE70123A3407B
:103BD0001E430134022C22DC57F8240058F824300C
:103BE000C01A0028B8BF4042FEF74EFA4FF05E51AF
:103BF000FEF79EFA054604F108036B4413F8043CF3
:103C0000002BE1D10B49FEF731FC0028DED10A4937
:103C10002846FEF749FC0028DBD0D7E707263046C8
:103C200002B0BDE8F08100BF54E3853F295C0F3E40
:103C30000000C841000020410000D2420000000006
:103C40002DE9F04389B080460F4605A8FFF71EFF17
:103C50004FF000094C4620E039493046FEF706FC9B
:103C600020B938493046FEF71FFCA8B13046FDF7B1
:103C7000E7FD02460B462CA1D1E90001CDE9020186
:103C80002BA1D1E90001CDE900012F4808F08EFCFD
:103C90000123A34049EA03090134022C3DDCA500BD
:103CA00058F8240057F82430C01A0028B8BF404202
:103CB000FEF7EAF94FF05E51FEF73AFA064605F1D3
:103CC00020030DEB030555F80C5C00212846FEF798
:103CD000C3FB0028C0D129463046FEF7DDFA4FF07D
:103CE0007E51FEF71BF9054620F000401749FEF70C
:103CF000DBFB0028D0D02846FDF7A2FD02460B468C
:103D00000DA1D1E90001CDE90001114808F04EFCF8
:103D10000123A34049EA0309BEE7484609B0BDE8CC
:103D2000F08300BFAFF30080000000606666EE3FE6
:103D3000000000403333D33F0000002085EBC13F3B
:103D40009A99993E3333733F50480108295C0F3EDE
:103D50003848010800B583B0214B93F82430BBB13B
:103D600090B102238DF807301D4B1B680DF107023F
:103D70000121D87B02F0B2F938BB9DF80720184B1F
:103D80005A7403B05DF804FB00238DF80730EBE7AD
:103D9000134B9B7AE3B110B1114B5B7CDBB980B163
:103DA00001238DF807300E4B1B680DF1070201212E
:103DB000D87B02F093F980B99DF80720084B5A741C
:103DC000DFE700238DF80730EDE74FF0FF30D8E74D
:103DD0004FF0FF30D5E70020D3E74FF0FF30D0E7BA
:103DE00010000020F0B589B005460C4616460123A8
:103DF0008DF8143000238DF81530A24B1B6805AAEE
:103E00000221987C02F06AF9002840F0AF81C820B6
:103E100003F0F2FE00238DF814309A4B1B6805AABC
:103E20000121D87B02F05AF9002840F0A281954B7D
:103E30001B6805AA0121587902F050F9002840F0CA
:103E40009B81904B1B6805AA0121987C02F046F9E2
:103E5000002840F094818B4B1B6805AA0121D87D76
:103E600002F03CF9002840F08D81864B1B6805AAC2
:103E70000121187902F032F9002840F086810C23E4
:103E80008DF814307F4B1B6805AA0121187902F0C8
:103E900025F9002840F07C810F2003F0ADFE794B1E
:103EA0009A6A527A8DF814201B6805AA0121987825
:103EB00002F014F9002840F06E81724B9A6A127A6F
:103EC0008DF814201B6805AA0121587802F006F924
:103ED000002840F06381002E6DD06A4B9B6A9B7A6C
:103EE00063F01F038DF81430664B1B6805AA01218F
:103EF000987902F0F3F8002840F05381002E60D04A
:103F0000604B9B6ADB7A63F01F038DF814305D4BC6
:103F10001B6805AA0121D87902F0E0F8002840F0DA
:103F20004381002E51D140238DF81430554B1B682E
:103F300005AA0121187902F0D1F8002840F0378154
:103F400078238DF814304F4B1B6805AA012158794E
:103F500002F0C4F8002840F02D81322003F04CFE1E
:103F600000238DF81430474B1B6805AA01215879AE
:103F700002F0B4F8002840F02081424B1B6805AAEB
:103F80000221987A02F0C0F80646002840F0188115
:103F90009DF814309DF8157047EA03273A4BA3FBB0
:103FA0000737C7F3C7070023AB606B602B60A360C4
:103FB0006360236057E0334B9B6A9B7A8DF8143023
:103FC00092E718238DF81430A1E7C82003F014FEFF
:103FD000A9E79DF814309DF8151041EA032109B2B4
:103FE000ADF804109DF816309DF8172042EA032220
:103FF00012B2ADF806209DF818009DF8193043EA7A
:1040000000231BB2ADF808302068014421606168CC
:104010000A446260A2681344A3609DF81A309DF8B8
:104020001B1041EA032109B2ADF80C109DF81C30B9
:104030009DF81D2042EA032212B2ADF80E209DF831
:104040001E009DF81F3043EA00231BB2ADF810306C
:1040500028680144296069680A446A60AA681344B0
:10406000AB600136F6B2BE4210D2064B1B6805AA01
:104070000C21D87A02F048F80028AAD04FF0FF307F
:1040800009B0F0BD10000020ABAAAAAA29688322BB
:10409000002308040914FEF757FA00263A4633466F
:1040A000FEF752FA28606968832200230804091485
:1040B000FEF74AFA3A463346FEF746FA6860A968C0
:1040C0008322002308040914FEF73EFA3A463346D9
:1040D000FEF73AFAA8602068031400041946B342B8
:1040E0002DDBC00A3A46334640EA4150C912FEF77A
:1040F0002BFA20606068031400041946002B24DBAF
:10410000C00A3A46334640EA4150C912FEF71CFA4B
:104110006060A068031400041946002B1BDBC00A72
:104120003A46334640EA4150C912FEF70DFAA06004
:10413000002816DDA0F58030A0600020A0E740F246
:10414000FF72801843F10001CBE740F2FF72801844
:1041500043F10001D4E740F2FF72801843F10001FF
:10416000DDE700F58030A060002089E74FF0FF30E8
:1041700086E74FF0FF3083E74FF0FF3080E74FF0E6
:10418000FF307DE74FF0FF307AE74FF0FF3077E701
:104190004FF0FF3074E74FF0FF3071E74FF0FF3022
:1041A0006EE74FF0FF306BE74FF0FF3068E74FF0FE
:1041B000FF3065E74FF0FF3062E74FF0FF305FE719
:1041C0004FF0FF305CE700BF714B9B7A002B00F093
:1041D000BD8000B583B000238DF807306C4B1B68A1
:1041E0000DF107020121D87B01F078FF002840F093
:1041F000B080674B1B680DF107020121587901F06F
:104200006DFF002840F0A880614B1B680DF107028C
:104210000121187901F062FF002840F0A0805C4B7A
:1042200093F82430002B49D00C238DF80730584BDD
:104230001B680DF107020121187901F04FFF0028DA
:1042400040F09080322003F0D7FCC0238DF8073077
:104250004F4B9B7A13F0010F02D0E0238DF807300B
:104260004B4B1B680DF107020121187901F036FF55
:1042700000287AD1464B5B7CE3B102238DF80730EE
:10428000434B1B680DF107020121D87B01F026FF8B
:1042900000286DD100238DF807303D4B1B680DF1D0
:1042A00007020121587901F019FF002863D103B0FA
:1042B0005DF804FB00238DF80730E1E704238DF857
:1042C0000730334B1B680DF107020121187901F00B
:1042D00005FF002852D12E4B9B7C23B92C4B9B7A97
:1042E00013F0010F2AD140238DF80730284B1B68AB
:1042F0000DF107020121187901F0F0FE002840D1EC
:10430000322003F079FC224B5B7CDBB101238DF87A
:1043100007301F4B1B680DF107020121D87B01F00C
:10432000DDFE88BB1A4A52F8103B0121587901F092
:10433000D5FE0028BBD04FF0FF30B8E760238DF8E2
:104340000730D3E700238DF80730E2E74FF0FF3066
:1043500070474FF0FF30AAE74FF0FF30A7E74FF06C
:10436000FF30A4E74FF0FF30A1E74FF0FF309EE7AA
:104370004FF0FF309BE74FF0FF3098E74FF0FF30F2
:1043800095E74FF0FF3092E74FF0FF308FE700BF27
:10439000100000200D4B1B7A032B13D8DFE803F02D
:1043A00002060A0EFA230380002070474FF4FA73C6
:1043B0000380F9E74FF47A730380F5E74FF4FA636B
:1043C0000380F1E700230380EEE700BF1000002028
:1043D000234B9B7A002B3AD000B583B0B0F57A7F9F
:1043E00031D00BD8FA2813D0B0F5FA7F03D10823C7
:1043F0008DF807300FE04FF0FF3021E0B0F5FA6F95
:1044000003D118238DF8073005E04FF0FF3017E097
:1044100000238DF80730124B1B7A9DF80720B3EB71
:10442000D20F17D00E4B1B680DF1070201219879AE
:1044300001F054FE80B99DF80730DB08084A13727A
:1044400003B05DF804FB10238DF80730E3E74FF06D
:10445000FF3070470020F3E74FF0FF30F0E700BF78
:10446000100000200F4B5B7A032B16D8DFE803F017
:10447000020C0F12022303700A4BDB7C83B103781A
:104480005B0003700020704704230370F4E70823E7
:104490000370F1E710230370EEE74FF0FF30704731
:1044A0000020704710000020224B9B7A002B33D055
:1044B00000B583B002380E2831D8DFE800F00830AC
:1044C000213030302530303030303030290000237A
:1044D0008DF80730174B5B7A9DF80720B3EBD20FAE
:1044E00022D0144B1B680DF107020121D87901F08D
:1044F000F5FDD8B99DF80730DB080E4A537210E07D
:1045000008238DF80730E5E710238DF80730E1E741
:1045100018238DF80730DDE74FF0FF3070474FF07C
:10452000FF3003B05DF804FB0020FAE74FF0FF30E6
:10453000F7E700BF100000200F4BDB7A013B052B93
:1045400017D8DFE803F003070A0D1013BC2303801C
:104550000020704762230380FAE72A230380F7E7ED
:1045600014230380F4E70A230380F1E70523038083
:10457000EEE700230380EBE710000020224B9B7A3C
:10458000002B38D000B583B0BB2818D901238DF893
:1045900007301D4BDA7A9DF807309A422ED01A4B1D
:1045A0001B680DF107020121987801F097FD38BBD7
:1045B0009DF80720144BDA7203B05DF804FB612804
:1045C00003D902238DF80730E3E7292803D9032311
:1045D0008DF80730DDE7132803D904238DF8073061
:1045E000D7E7092803D905238DF80730D1E706233B
:1045F0008DF80730CDE74FF0FF3070470020DBE744
:104600004FF0FF30D8E700BF10000020054B93F8B3
:10461000243023B9034BDB890380002070474FF01F
:10462000FF307047100000200D4B1B7A032B13D86E
:10463000DFE803F002060A0E0A4B03600020704711
:10464000094B036000207047084B0360002070474F
:10465000074B0360002070474FF0FF30704700BFEA
:104660001000002000000343000083423333034264
:1046700033338341114B5B7A032B1AD8DFE803F005
:10468000020D11154FF4804303800C4BDB7C9BB172
:1046900003885B0803800020704741F69C73038009
:1046A000F3E74FF480530380EFE74FF40063038098
:1046B000EBE74FF0FF3070470020704710000020FC
:1046C000024B1B7C03700020704700BF10000020CD
:1046D00070B5174B93F824302BBB00F0FE04144B3D
:1046E0009B7A13B3124A167C23401374A3420BD057
:1046F0004FF0FF3514B90E4B1B7D3BB10120FFF786
:1047000029FB3CB9284670BD0025F3E70020FFF7E0
:1047100021FBF6E7FFF758FD0028F3D0044B1E7489
:104720004FF0FF35EEE70025ECE74FF0FF35E9E706
:10473000100000202C4B93F82430002B44D0F0B50F
:1047400083B005460F461646274B9B7A002B3ED07A
:10475000254B1B6801AA0221987A01F0D5FC00289C
:1047600038D19DF804009DF8054044EA0024AC428D
:1047700020D31D4B5B685B88B4EB530F0CD91A4BED
:104780001B6801AA0121587C01F0BEFC28BB9DF8E2
:10479000043013F0100F12D1134B1B683A46E9B2E4
:1047A000D87A01F0B1FCD8B9B4FBF5F4013C34700F
:1047B00003B0F0BD002333704FF0FF30F8E7FFF790
:1047C00003FD6FF00100F3E74FF0FF3070474FF04B
:1047D000FF30EDE74FF0FF30EAE74FF0FF30E7E75B
:1047E0004FF0FF30E4E700BF10000020524B9B7CED
:1047F000834200F08F8010B582B0044600283ED07E
:104800004D4B1B680DF107020121187901F07CFC6A
:10481000002840F081809DF8073023F020038DF8B8
:104820000730454B1B680DF107020121187901F093
:1048300055FC002873D1032003F0DEF902238DF824
:1048400007303D4B93F8223013B182238DF80730A7
:10485000394B93F823302BB19DF8073043F03003E8
:104860008DF80730344B1B680DF107020121187DCC
:1048700001F034FC00283DD04FF0FF303DE02E4BDE
:104880001B680DF107020121187901F03DFC002899
:1048900048D1294B9B7A13F0010F30D09DF8073097
:1048A00043F020038DF80730234B1B680DF10702FE
:1048B0000121187901F012FCB8BB032003F09CF928
:1048C0001D4B93F822300BB380238DF807301A4B21
:1048D00093F823302BB19DF8073043F030038DF867
:1048E0000730154B1B680DF107020121187D01F0FF
:1048F000F5FBE8B9104B9C74002002B010BD9DF888
:10490000073023F020038DF80730CDE700238DF822
:104910000730DCE7002070474FF0FF30EDE74FF045
:10492000FF30EAE74FF0FF30E7E74FF0FF30E4E712
:104930004FF0FF30E1E700BF100000201A4B93F862
:10494000233083422BD010B582B0044618B33023F5
:104950008DF80730144B9B7C2BB19DF8073043F04A
:1049600002038DF80730104B93F822302BB19DF8DD
:10497000073063F07F038DF807300B4B1B680DF198
:1049800007020121187D01F0A9FB50B9064B83F8FD
:10499000234002B010BD00238DF80730DAE7002075
:1049A00070474FF0FF30F4E71000002028285BD854
:1049B00010B582B00446A8B90020FFF7BFFF00235E
:1049C0008DF8043007238DF805302C4B1B6801AAA5
:1049D0000221987C01F082FB002848D1274B1875F2
:1049E00002B010BD0120FFF7A9FF20238DF804308D
:1049F000012C24D0052C29D9142C2ED802238DF873
:104A000005300A20FFF7BAFD9DF805309B0143F001
:104A100007038DF80530194B1B6801AA0221987C09
:104A200001F05CFB30BB154B08229A7200241C730A
:104A300001221A752046FFF74BFE2046D0E70023DF
:104A40008DF805300520FFF799FDDDE701238DF88E
:104A500005300520FFF792FDD6E703238DF80530DA
:104A60001420FFF78BFDCFE74FF0FF3070474FF07A
:104A7000FF30B5E74FF0FF30B2E700BF1000002075
:104A8000254B9B7A002B3ED010B582B00446224BBA
:104A900093F82430002B39D11F4B1B7D33B1431EBB
:104AA0009BB2272B0AD90020FFF780FF032C0AD9DD
:104AB000B4F57A7F08D94FF47A7405E0C0B2FFF7F5
:104AC00075FF00201DE004244FF47A7090FBF4F48D
:104AD000013C8DF80740104B1B680DF107020121C6
:104AE000587801F0FBFAA0B99DF80700431C4FF479
:104AF0007A7090FBF3F0084BD8814008FFF73EFD39
:104B0000002002B010BD4FF0FF3070474FF0FF3073
:104B1000F7E74FF0FF30F4E71000002010B582B047
:104B2000044610F0700F4CD001238DF80730314B44
:104B30001B680DF107020121987C01F0CFFA0028D3
:104B400048D19DF8073003F0BF032A4A13730023AE
:104B50008DF8073014F0400F02D104238DF8073090
:104B600014F0200F05D19DF8073043F002038DF8B3
:104B7000073014F0100F05D19DF8073043F0010302
:104B80008DF8073014F0080F05D19DF8073043F079
:104B900038038DF80730174B1B680DF10702012110
:104BA000D87C01F09BFAD8B90CB1082C1ED1114B5E
:104BB0009C7200241C75322003F01EF8204602B0BF
:104BC00010BD18B100238DF80730B0E740238DF8F1
:104BD0000730ACE7074B00229A724FF0FF30EEE748
:104BE000044B00229A724FF0FF30E8E70020FFF7F5
:104BF000A5FEDCE71000002010B582B080238DF800
:104C00000030634B1B686A460121987C01F066FA0C
:104C1000002840F09E80642002F0EEFF00238DF813
:104C200000305B4B1B686A460121987C01F056FA04
:104C3000002840F09180564B1B686A460621987DFB
:104C400001F062FA002840F08A809DF80510890082
:104C500001F004019DF803305B0003F002031943E7
:104C60009DF9013003F00103194352D0012946D0C8
:104C7000022948D1464B0022DA74454BFF229A7232
:104C80001A725A72DA724FF6FF71D9811A749A74D5
:104C900001221A7383F82220002283F823205A75F8
:104CA0001A75C3F81620C3F81A20C3F81E2083F81B
:104CB000242083F82520DA844FF4FA60FFF788FB7C
:104CC000002852D10220FFF7EFFB002850D12A2004
:104CD000FFF754FC00284ED13220FFF7D1FE002808
:104CE0004CD1FFF7F5FC00284BD1FFF77FFD0446C0
:104CF000002849D1FFF712FF204602B010BD244B17
:104D00000122DA74B9E7234807F050FC4FF0FF3472
:104D1000F2E71F4B1B686A460121D87801F0F4F9CD
:104D200000BB9DF8003013F00F0305D0042B09D011
:104D3000174B0022DA74A0E7174807F0A1FC4FF0E8
:104D4000FF34D9E7154807F09BFC114B0122DA74B8
:104D500093E74FF0FF34CFE74FF0FF34CCE74FF04D
:104D6000FF34C9E74FF0FF34C6E74FF0FF34C3E725
:104D70004FF0FF34C0E74FF0FF34BDE74FF0FF3492
:104D8000BAE74FF0FF34B7E74FF0FF34B4E700BFA6
:104D9000100000206C48010894480108E048010810
:104DA00022B330B583B00C461546184B9B7A03B33B
:104DB000030A8DF80430C0B28DF805000844134B87
:104DC0005B685B89984217DC104B1B6801AA0221C3
:104DD000187E01F083F990B90C4B1B682A46E1B2AA
:104DE000587D01F07BF968B903B030BD4FF0FF305A
:104DF00070474FF0FF30F7E74FF0FF30F4E74FF028
:104E0000FF30F1E74FF0FF30EEE700BF1000002069
:104E100022B330B583B00C461546184B9B7A03B3CA
:104E2000030A8DF80430C0B28DF805000844134B16
:104E30005B685B89984217DC104B1B6801AA022152
:104E4000187E01F04BF990B90C4B1B682A46E1B271
:104E5000587D01F059F968B903B030BD4FF0FF300B
:104E600070474FF0FF30F7E74FF0FF30F4E74FF0B7
:104E7000FF30F1E74FF0FF30EEE700BF10000020F9
:104E80002DE9F04F87B09A46284B93F82530002B38
:104E90003AD1074688469146002938D00024BC42C2
:104EA0001BD23E1B102EA8BF1026B5B208EB040B78
:104EB0005A4629462046FFF773FF58BB02AA2946E7
:104EC0002046FFF7A5FF40BB2A4602A9584607F037
:104ED000DBFA28BB2C44A4B2E1E74FEA19238DF892
:104EE00004308DF80590114B1B6801AA0221987EB1
:104EF00001F0F4F8B8B90D4B012283F82520A3F88E
:104F000026A007B0BDE8F08F4FF0FF30F9E74FF073
:104F1000FF30F6E74FF0FF30F3E74FF0FF30F0E7F8
:104F20006FF00100EDE74FF0FF30EAE710000020DE
:104F3000204B93F82430834237D030B583B000B390
:104F40001C4B93F8253093B30020FEF703FF00209D
:104F5000FFF74CFC174DE88CFFF792FD00248DF80D
:104F600007400DF107020121232001F0B7F80120CD
:104F700085F82400FEF7EEFEFFF726F9204603B081
:104F800030BD0020FEF7E6FE0A4D2B7C8DF8073081
:104F90000DF107020121232001F0A0F8002485F87B
:104FA0002440FFF711F92046E9E7002070474FF051
:104FB000FF30E4E7100000202DE9F04188B00546FD
:104FC0000E46404B93F82470FFB901A8FFF7E2F9B1
:104FD0000DF10700FFF746FA6846FFF7ADFA0DF14D
:104FE0000200FFF713FB374B93F80A800DF1060020
:104FF000FFF766FB0024012C0CDC0022314628461A
:10500000FEF7F0FE30B10134F5E70020FFF790FF26
:105010000127DAE7022C26D00024012C07DC01222C
:1050200002A905A8FEF7DEFE08B10134F5E7022C5F
:105030001BD002A93046FEF703FEC4B22146224827
:1050400007F0B4FA05A92846FEF77CFDC5B229464B
:105050001E4807F0ABFA25B100253CB945F0020522
:1050600004E00125F9E7002500E00025154BFF22AB
:105070001A725A72DA724FF6FF71D9819A721A74E3
:1050800001221A73BDF80400FFF7A2F99DF807008A
:10509000FFF70AFABDF80000FFF770FABDF802004A
:1050A000FFF7EEFC4046FFF739FD9DF80600FFF7DD
:1050B0000FFB1FB9284608B0BDE8F0810120FFF7BB
:1050C00037FFF7E710000020004901081C490108DC
:1050D00010B588B002A905A8FFF76EFF0446014687
:1050E000204807F063FA032C02D0012008B010BD5D
:1050F00001A8FFF799FA019C0598FCF7C5FF214626
:10510000FDF716F8FDF7DAF905900698FCF7BCFFF5
:105110002146FDF70DF8FDF7D1F906900798FCF749
:10512000B3FF2146FDF704F8FDF7C8F9079005A87D
:1051300000F0AEFA0DF10200FFF79CFABDF8022074
:10514000029B02FB03F30293039B02FB03F3039313
:10515000049B02FB03F3049302A800F021FB002050
:10516000C4E700BF3849010890F90030002B01DD89
:10517000002070470FDB90F90130002B01DD01208A
:1051800070470ADB90F90230002B08DC01DB0720B6
:1051900070470620704704207047052070470220A2
:1051A000704738B50546FFF7DFFF0446E81CFFF7F8
:1051B000DBFF44EAC00424B2A81DFFF7D5FF44EA90
:1051C000801080B238BD704708B5434803F010FD29
:1051D000642002F011FDFFF70FFD00284CD178206C
:1051E000FFF79CFC10F0FF0F4BD13C4807F048FA4A
:1051F0007820FFF76DFA10F0FF0F47D1384807F01D
:105200003FFA6420FFF73CFC10F0FF0F43D1354814
:1052100007F036FA00F08AF910F0FF0F40D132485B
:1052200007F02EFA3148FFF7BCFF00F08BF910F0C1
:10523000FF0F3AD12E4807F023FA40F2731000F026
:1052400047FD10F0FF0F35D12A4807F019FA142056
:1052500000F020FB10F0FF0F3BD1FFF739FF70BBD0
:10526000254807F00DFA0120FFF762FE10F0FF0F4E
:105270002AD1224807F004FA214807F001FA002059
:1052800008BD204807F0FCF90120F9E71E4807F0A7
:10529000F7F90220F4E71D4807F0F2F90320EFE7E1
:1052A0001B4807F0EDF90420EAE71A4807F0E8F98F
:1052B0000520E5E7184807F0E3F90620E0E717487E
:1052C00007F0DEF90820DBE7154807F0D9F90920D7
:1052D000D6E70720D4E700BF141800206C49010866
:1052E00098490108C8490108F8490108040000204C
:1052F000284A0108544A01087C4A0108A84A0108C2
:10530000C04A01085849010884490108B049010808
:10531000E4490108104A0108444A0108684A0108A2
:10532000944A0108000000002DE9F04F8FB00646B6
:10533000029193460DF1210301930DF12203009395
:105340000DAB04AA09A90BA800F0CEFD002840F07F
:10535000C780BDF8223013F4807F00F0C38004982A
:10536000FCF792FE4FF04251FCF7E2FE82460598B0
:10537000FCF78AFE4FF04251FCF7DAFE054606982C
:10538000FCF782FE4FF04251FCF7D2FE044607982C
:10539000FCF77AFE4FF04251FCF7CAFE07464FF089
:1053A00040412846FCF7C4FE81463946FCF7C0FE62
:1053B000804651465046FCF7B3FD03902146FCF76A
:1053C000B7FE01464046FCF7ABFDFCF739FA0EF09C
:1053D00083FC45A3D3E90023FCF78AFAFCF74AFDD6
:1053E000306021462046FCF79BFD80463946FCF79D
:1053F0009FFE064629460398FCF79AFE0146304672
:10540000FCF78EFD064629464846FCF791FE81468C
:1054100021464046FCF78CFE01464846FCF77EFDDF
:105420004FF07E51FCF77CFDFCF70AFA8046894676
:105430003046FCF705FA42464B460EF075FC2AA3AF
:10544000D3E90023FCF754FAFCF714FD029B186023
:1054500021462846FCF76CFE064639465046FCF7C6
:1054600067FE01463046FCF75BFD0146FCF758FD40
:10547000064651465046FCF75BFE804629462846C4
:10548000FCF756FE01464046FCF74AFD054621461C
:105490002046FCF74DFE01462846FCF73FFD04463A
:1054A00039463846FCF744FE01462046FCF736FDF7
:1054B000FCF7C6F904460D463046FCF7C1F9224612
:1054C0002B460EF031FC08A3D3E90023FCF710FAB9
:1054D000FCF7D0FCCBF8000000200FB0BDE8F08F47
:1054E0000120FAE70220F8E76666666666A64C4089
:1054F00038B50446C578437813F0010F09D005F09C
:105500003F00C00805F007010131074B1B6803B1DC
:105510009847637813F0080F04D0034B5B680BB116
:10552000A8099847002038BDEC17002008B5C8230B
:105530004FF48062024940F6F630FFF7A1FC08BD47
:10554000684B010810B586B004464C4B1B68ADF89B
:105550000C301B0C8DF80E30494B1B68ADF8083031
:105560001B0C8DF80A30474B1B68ADF804301B0C40
:105570008DF80630444B1B68ADF800301B0C8DF8DD
:10558000023000F0030101F118030DEB030111F8E3
:105590000C3C8DF81430C0F3C10202F118030DEB7E
:1055A000030212F80C3C8DF81530C0F38113183348
:1055B0006B4413F80C0C8DF8160011F8101C8DF8C4
:1055C000101012F8102C8DF8112013F8103C8DF8E3
:1055D000123005AA032140F22640FFF7E1FB002824
:1055E00040D104AA032140F22A40FFF7D9FB00284A
:1055F0003BD1019BADF814301B0C8DF81630009B8D
:10560000ADF810301B0C8DF8123014F0040F05D0DB
:1056100037238DF8143027238DF8103014F0200F25
:1056200005D057238DF8153047238DF8113014F429
:10563000807F05D077238DF8163067238DF81230E0
:1056400005AA03214FF48860FFF7AAFB80B904AADA
:10565000032140F23140FFF7A3FB60B90B4B1C81E3
:1056600006B010BD4FF0FF30FAE74FF0FF30F7E71C
:105670004FF0FF30F4E74FF0FF30F1E7304B010817
:10568000344B0108384B01083C4B0108EC17002053
:1056900030B585B0404B1B8903F0030250F822203F
:1056A000019213F0040F01D052420192C3F3C102E0
:1056B00050F82220029213F0200F01D052420292A1
:1056C000C3F3811250F82220039213F4807F01D09B
:1056D00052420392019BD817304AA3FB023102FBCE
:1056E00000119B0F43EA810301930299C817A1FBA4
:1056F000021502FB0055890F41EA85050295039CBE
:10570000E017A4FB024102FB0012A40F44EA82044A
:1057100003941A0E8DF80020C3F307428DF8012080
:10572000C3F307228DF802208DF803306A46042166
:105730004FF47470FFF734FB40BB2B0E8DF8003034
:10574000C5F307438DF80130C5F307238DF8023008
:105750008DF803506A4604214FF47570FFF720FB63
:10576000B8B9230E8DF80030C4F307438DF801302B
:10577000C4F307238DF802308DF803406A460421F4
:105780004FF47670FFF70CFB05B030BD4FF0FF30E3
:10579000FAE74FF0FF30F7E7EC17002009E3CA0201
:1057A00010B588B004460DF10600FEF763FFBDF8A2
:1057B00006C04FEACC3C364B1A8902F0030354F87A
:1057C0002330059312F0040F01D05B420593C2F31E
:1057D000C10354F82330069312F0200F01D05B422E
:1057E0000693C2F3811354F82330079312F4807F99
:1057F00001D05B4207930599CA17A1FB0C130CFB60
:105800000233890F41EA83010591069AD017A2FB62
:105810000C230CFB0033920F42EA83020692079B93
:10582000DC17A3FB0C300CFB040C9B0F43EA8C032E
:105830000793080E8DF80800C1F307408DF80900A2
:10584000C1F307208DF80A008DF80B10110E8DF8AA
:105850000C10C2F307418DF80D10C2F307218DF82B
:105860000E108DF80F201A0E8DF81020C3F307428A
:105870008DF81120C3F307228DF812208DF8133014
:1058800002AA0C214FF42570FFF78AFA08B010BD68
:10589000EC17002010B586B00446164B93E80700BD
:1058A00006AB03E90700C82C1AD8C82393FBF4F30E
:1058B000013B1A0E8DF804208DF8053001AA022153
:1058C00040F21620FFF76CFA68B903AA0C2140F6E3
:1058D000C120FFF765FA48B9074B9C8106B010BD9F
:1058E0004FF0FF30FAE74FF0FF30F7E74FF0FF30AF
:1058F000F4E700BF404B0108EC17002070B582B000
:10590000044610F0070F00F0AC800846B1F5C86FF0
:1059100000F2AA80FCF7B4FB5B49FCF7BDFC05462E
:105920000DF10300FEF79EFD9DF80330023B0E2BA8
:1059300000F29D80DFE803F0089B2C9B9B9B3C9B27
:105940009B9B9B9B9B9B4C004FF08D412846FCF7FB
:10595000EFFBFCF7D9FD86B24C492846FCF7E8FB83
:10596000FCF7D2FD80B2330A8DF804308DF8056063
:10597000030A8DF806308DF8070014F0010F37D1B7
:1059800014F0020F48D114F0040F58D1002070E039
:105990004FF08C412846FCF7CBFBFCF7B5FD86B2F7
:1059A0003B492846FCF7C4FBFCF7AEFD80B2DAE7C2
:1059B0004FF08B412846FCF7BBFBFCF7A5FD86B2F8
:1059C00034492846FCF7B4FBFCF79EFD80B2CAE7D9
:1059D0004FF08A412846FCF7ABFBFCF795FD86B2F9
:1059E0002D492846FCF7A4FBFCF78EFD80B2BAE7F0
:1059F00001AA02214FF4EA70FFF7D2F900283AD148
:105A00000DF1060202214FF49270FFF7C9F9002848
:105A1000B6D04FF0FF302CE001AA02214FF4EC7019
:105A2000FFF7BEF950BB0DF1060202214FF494704E
:105A3000FFF7B6F90028A6D04FF0FF3019E001AA11
:105A400002214FF4EE70FFF7ABF9D0B90DF1060269
:105A500002214FF49670FFF7A3F950B14FF0FF30D9
:105A600007E04FF0FF3004E04FF0FF3001E04FF06F
:105A7000FF3002B070BD4FF0FF30FAE74FF0FF305B
:105A8000F7E74FF0FF30F4E70000484300004046DE
:105A90000000C045000040450000C04400B583B090
:105AA00000238DF8073010F0010F02D030238DF85D
:105AB000073010F0020F05D09DF8073043F00C03BB
:105AC0008DF8073010F0040F05D09DF8073043F033
:105AD00003038DF807300DF1070201214FF4A47084
:105AE000FFF75EF903B05DF804FB00B583B020B1A9
:105AF0000346042802D9042300E00123013B8DF86A
:105B000007300DF10702012140F24F10FFF748F96D
